:100000000C94D0030C94F8030C94F8030C94F803AC
:100010000C94F8030C94F8030C94F8030C94F80374
:100020000C94F8030C94F8030C9491090C94000AB6
:100030000C94F8030C94F8030C94F8030C94F80354
:100040000C94F8030C94F8030C94F8030C94F80344
:100050000C94F8030C94F8030C94F8030C94320CF1
:100060000C94F8030C94F8030C94F8030C94F80324
:100070000C94F8030C94F8030C94F8030C94F80314
:100080000C94F8030C94F8030C94F8030C94F80304
:100090000C94F8030C94F8030C94F8030C94F803F4
:1000A0000C94F8030C94F8030C94F803000000007F
:1000B000003E5B4F5B3E3E6B4F6B3E1C3E7C3E1CEE
:1000C000183C7E3C181C577D571C1C5E7F5E1C0034
:1000D000183C1800FFE7C3E7FF0018241800FFE7EB
:1000E000DBE7FF30483A060E2629792926407F05AE
:1000F0000507407F05253F5A3CE73C5A7F3E1C1CC4
:1001000008081C1C3E7F14227F22145F5F005F5F83
:1001100006097F017F006689956A6060606060946F
:10012000A2FFA29408047E040810207E2010080874
:100130002A1C08081C2A08081E101010100C1E0C7F
:100140001E0C30383E3830060E3E0E060000000011
:100150000000005F00000007000700147F147F14F8
:10016000242A7F2A1223130864623649562050003D
:1001700008070300001C2241000041221C002A1C29
:100180007F1C2A08083E0808008070300008080814
:100190000808000060600020100804023E51494534
:1001A0003E00427F400072494949462141494D3352
:1001B0001814127F1027454545393C4A49493141B9
:1001C000211109073649494936464949291E000087
:1001D00014000000403400000008142241141414DC
:1001E0001414004122140802015909063E415D59C8
:1001F0004E7C1211127C7F494949363E41414122D1
:100200007F4141413E7F494949417F090909013EFA
:10021000414151737F0808087F00417F4100204021
:10022000413F017F081422417F404040407F021C33
:10023000027F7F0408107F3E4141413E7F0909094A
:10024000063E4151215E7F09192946264949493216
:1002500003017F01033F4040403F1F2040201F3FDC
:100260004038403F63140814630304780403615961
:10027000494D43007F4141410204081020004141A3
:10028000417F04020102044040404040000307084F
:100290000020545478407F2844443838444444284B
:1002A000384444287F385454541800087E090218F2
:1002B000A4A49C787F0804047800447D400020407A
:1002C000403D007F1028440000417F40007C0478BE
:1002D00004787C080404783844444438FC18242406
:1002E0001818242418FC7C08040408485454542486
:1002F00004043F44243C4040207C1C2040201C3C03
:100300004030403C44281028444C9090907C4464F9
:10031000544C44000836410000007700000041368C
:10032000080002010204023C2623263C1EA1A16112
:10033000123A4040207A3854545559215555794144
:100340002154547841215554784020545579400C1B
:100350001E527212395555555939545454593955FC
:100360005454580000457C410002457D420001453F
:100370007C40F0292429F0F0282528F07C545545AC
:10038000002054547C547C0A097F4932494949323F
:100390003248484832324A4848303A4141217A3A54
:1003A00042402078009DA0A07D39444444393D401E
:1003B00040403D3C24FF2424487E4943662B2FFCCB
:1003C0002F2BFF0929F620C0887E09032054547979
:1003D000410000447D413048484A32384040227A4A
:1003E000007A0A0A727D0D19317D2629292F2826C7
:1003F0002929292630484D402038080808080808CF
:100400000808382F10C8ACBA2F102834FA00007B27
:10041000000008142A142222142A1408950022002D
:1004200095AA005500AAAA55AA55AA000000FF00E7
:10043000101010FF00141414FF001010FF00FF1024
:1004400010F010F0141414FC001414F700FF000056
:10045000FF00FF1414F404FC141417101F10101FD5
:10046000101F1414141F00101010F0000000001FC3
:10047000101010101F10101010F010000000FF10CE
:100480001010101010101010FF10000000FF1400CA
:1004900000FF00FF00001F10170000FC04F41414FC
:1004A0001710171414F404F40000FF00F7141414C8
:1004B00014141414F700F7141414171410101F1048
:1004C0001F141414F4141010F010F000001F101F6B
:1004D0000000001F14000000FC140000F010F010D9
:1004E00010FF10FF141414FF141010101F00000050
:1004F00000F010FFFFFFFFFFF0F0F0F0F0FFFFFF54
:100500000000000000FFFF0F0F0F0F0F38444438AA
:10051000447C2A2A3E147E02020606027E027E02E5
:1005200063554941633844443C04407E201E200604
:10053000027E020299A5E7A5991C2A492A1C4C7241
:1005400001724C304A4D4D303048784830BC625AC8
:10055000463D3E494949007E0101017E2A2A2A2A58
:100560002A44445F444440514A444040444A514034
:100570000000FF0103E080FF000008086B6B0836F5
:1005800012362436060F090F060000181800000066
:100590001010003040FF0101001F01011E00191D55
:1005A0001712003C3C3C3C000000000000B0000082
:1005B000A170E150964F26900F1D070C0096690020
:1005C0004AE44A0048444000806810000F99FB8FBD
:1005D00099BDBBF977D4D4DF1F1A1AFE7F5D5DFF8A
:1005E000805A0000A0A4AA0010BA3400FF5953F3A7
:1005F000FF9B9B9EFFB9B996FF9595D19FF4940FF1
:10060000FC295F91FF1838F8FF9294FFFF95D5F70A
:100610007FD5DDD7F18F81F1F788C8F779C64679A4
:1006200009FD9B090196F800828182805071620069
:100630007756560076763700A2B773010772060028
:100640007827500073347400775176007F55F70097
:1006500047711000324772007364730015A2750071
:1006600061679400009F6060F4F2F6F2F0F89C8EEF
:100670008783878E9CF8F00000FEFF0303030303CB
:10068000070EFCF80000FEFF0303030303070EFC44
:10069000F80000FFFF00000000000000FFFF000066
:1006A000FEFF8383838383C7EE7C380000F8FC0E53
:1006B00007030303070EFCF800003F7FE0C08080C3
:1006C000C0E07F3FFFFF01010101010101FFFF00C9
:1006D00000FFFF0C0C0C0C1C3E77E3C100007FFFF9
:1006E000C0C0C0C0C0E0703F1F00001F3F70E0C02E
:1006F000C0C0E0703F1F00007FFFC1C1C1C1C1E3A6
:10070000773E1C00001F3F70E0C0C0C0E0703F1F7C
:10071000000000000001FFFF01000000D5F08D1473
:10072000A1C881CFD9F1AF2000080B00020202005E
:100730000009040000010202000005240010010568
:100740002401010104240206052406000107058195
:100750000310004009040100020A0000000705021E
:100760000240000007058302400000040309041250
:10077000010002EF02014041233680000101020323
:100780000141726475696E6F204C4C430041726484
:1007900075696E6F204C656F6E6172646F00F40C4A
:1007A00011241FBECFEFDAE0DEBFCDBF11E0A0E025
:1007B000B1E0E6EEF4E202C005900D92AA35B10771
:1007C000D9F726E0AAE5B1E001C01D92AC31B2072D
:1007D000E1F713E0C0EDD3E004C02197FE010E94D1
:1007E0006612CF3CD107C9F70E94460D0C947112D6
:1007F0000C94000090910F06982329F490910E0616
:10080000982381E009F480E00895480F592F511D85
:100810001416150684F5803891056CF597FF02C013
:1008200090E080E04138510514F040E850E0481B6A
:10083000FB01E770FF2721E001C0220FEA95EAF7EC
:1008400077FF02C0695F7F4FFB0133E0F595E795C5
:100850003A95E1F7F695FE2FEE27F795E795E80F25
:10086000F91FEF50FE4F415030F08191DF01119799
:10087000822B8C93F8CF0895E1EFF1E0A0E0B8E08F
:1008800000800EBC8111012C1197A0FDFDCF0192BB
:10089000B9F70DB40895FC018091A001882311F1EE
:1008A0003FB7F89482E08093E9002091F200822F14
:1008B00090E01816190614F481E090E0882339F0CE
:1008C000289844E640939F014091F1004083222301
:1008D00039F02091F200211103C02BE62093E800AB
:1008E0003FBF08958FEF9FEF08952FB7F89483E0EF
:1008F0008093E9009091E800892F807295FF04C0F1
:100900009091F20080E4891B2FBF08958091970198
:1009100081110DC082E08093930184E08093940163
:10092000109296011092950181E08093970183E9DE
:1009300091E00895CF93DF931F92CDB7DEB769831F
:10094000DC01ED91FC910280F381E02D41E050E06B
:10095000BE016F5F7F4F09950F90DF91CF91089592
:1009600083E08093E9008091F200882319F08AE304
:100970008093E80008950E94750490E00895CF9355
:10098000DF931F92CDB7DEB7FC018485958597FD77
:1009900008C02FEF3FEF358724870F90DF91CF916D
:1009A0000895CE0101960E944B04019719F48981A4
:1009B00090E0F3CF8FEF9FEFF0CF0F931F93CF9384
:1009C000DF931F92CDB7DEB78C01FC01848595853E
:1009D00097FF0BC0CE0101960E944B04019771F462
:1009E000898190E0F80195878487F8018485958551
:1009F0000F90DF91CF911F910F9108958FEF9FEF8F
:100A0000F1CFFC018485958597FD0BC09FB7F894C5
:100A100082E08093E9008091F2009FBF90E0019610
:100A200008959FB7F89482E08093E9008091F200E6
:100A30009FBF90E0089540918D0150918E012091CB
:100A40008B0130918C0142175307B4F49091E80068
:100A50009570E1F39091E80092FD19C08093F10048
:100A600080918D0190918E0101968F739927892B2A
:100A700019F48EEF8093E80080918D0190918E01A2
:100A8000019690938E0180938D0181E0089580E01E
:100A90000895DF92EF92FF920F931F93CF93DF930E
:100AA000D82E8A01EB017B01E40EF51ECE15DF0581
:100AB00059F0D7FE12C0FE0184910E941B052196B9
:100AC0008111F4CF0FEF1FEFC801DF91CF911F917C
:100AD0000F91FF90EF90DF9008958881EECF0F93F4
:100AE0001F93CF93DF931F92CDB7DEB782E0898348
:100AF00042E450E069E277E080E80E9449050E9404
:100B00008604DC0112960D911C910115110589F0E6
:100B1000D801ED91FC910280F381E02DBE016F5F61
:100B20007F4FC801099597FD04C0F8010085118524
:100B3000ECCF89810F90DF91CF911F910F91089594
:100B4000615030F02091F100FC0120830196F8CF34
:100B5000289884E680939F010895AF92BF92CF9228
:100B6000DF92EF92FF920F931F93CF93DF936C016D
:100B70007B018B01040F151FEB015E01AE18BF084E
:100B8000C017D10759F06991D601ED91FC91019000
:100B9000F081E02DC6010995892B79F7C501DF9118
:100BA000CF911F910F91FF90EF90DF90CF90BF906A
:100BB000AF9008953FB7F89480915B0190915C01EC
:100BC000A0915D01B0915E0126B5A89B05C02F3FA5
:100BD00019F00196A11DB11D3FBFBA2FA92F982F63
:100BE0008827BC01CD01620F711D811D911D42E05E
:100BF000660F771F881F991F4A95D1F708958F9226
:100C00009F92AF92BF92CF92DF92EF92FF926B01D1
:100C10007C010E94DA054B015C01C114D104E1049E
:100C2000F104B9F00E94DA05681979098A099B096B
:100C3000683E73408105910580F321E0C21AD10816
:100C4000E108F10888EE880E83E0981EA11CB11C13
:100C5000E4CFFF90EF90DF90CF90BF90AF909F9048
:100C60008F9008958F929F92AF92BF92CF92DF9212
:100C7000EF92FF920F931F93CF93DF936C017B0151
:100C80008A0180910B01882309F45CC08091A00146
:100C9000882309F457C08091920180FF05C080919C
:100CA000E00082608093E000E801B12C8AEFA82E7A
:100CB00093E0892E2AE3922E209711F4BB20D9F1DC
:100CC0000E94750481110AC0AA94AA20D9F161E09A
:100CD00070E080E090E00E94FF05EECF8C171D06CB
:100CE00011F00CF08C2F9FB7F8948092E9002091BE
:100CF000E80025FD02C09FBFDFCF282F30E0C21BD8
:100D0000D30BF701815020F041914093F100FACFCD
:100D1000E20EF31EBB2021F09092E800B12CEBCF45
:100D20008091E80085FDE7CF9092E800BB24B39462
:100D3000209709F3F3CF5D9884E680939101101614
:100D400011063CF081E090E0F6019383828310E08D
:100D500000E0C801DF91CF911F910F91FF90EF90BC
:100D6000DF90CF90BF90AF909F908F9008958F921B
:100D70009F92AF92BF92CF92DF92EF92FF920F932A
:100D80001F93CF93DF938C017B01C22F98E0C92E74
:100D9000D12C242F269526952695822E912CCA019A
:100DA00087709927892B89F5D8011696CD90DC900C
:100DB000C7019927B6010E943E12C89CF001C99C48
:100DC000F00DD89CF00D11248E0F9F1FD8011496A2
:100DD000ED91FC911597E80FF91F208150968D91A8
:100DE0009C91892B81F4C095C223C083DF91CF9160
:100DF0001F910F91FF90EF90DF90CF90BF90AF9039
:100E00009F908F900895C22BF0CFD0E04770A42E12
:100E1000B12C83E0880C991C8A95E1F79E0101C0F2
:100E2000220F4A95EAF7A401B701C8010E94B7064C
:100E3000A401485F5F4FC6018A199B0902C0D5957E
:100E4000C7958A95E2F7A5CF8F929F92AF92BF92F6
:100E5000CF92DF92FF920F931F93CF93DF93EC011A
:100E60006A30D1F48C859D859B878A878B892E85F6
:100E70003F85820F932F911D9F878E8781E090E0A1
:100E8000DF91CF911F910F91FF90DF90CF90BF9096
:100E9000AF909F908F900895AA84BB84693031F4FD
:100EA00089E0A80EB11CBB86AA86E8CF8DEFA816F4
:100EB0008FEFB8060CF445C08E819F81A816B90645
:100EC0000CF03FC0CE84DF848DEFC8168FEFD806BC
:100ED000C4F188859985C816D9069CF5603208F456
:100EE0006FE700EE060F8FE9860F8A3118F48FEF57
:100EF000C81AD80A0C3011F00B3119F48FEFC81A48
:100F0000D80A069584E0089F8001112404551A4FE1
:100F1000912C812C6170F62EF801E80DF91D2491B9
:100F2000F11019C02F70B501680D791DA601CE0111
:100F30000E94B7068FEF881A980A84E088169104F9
:100F400059F78A8990E004962A853B85820F931F82
:100F50009B878A8793CF2295E5CF2D9A0895BC0170
:100F600090E080E00C94FF058FB18095807F669BB8
:100F700088601C9B8460089520E191E061FD94E00D
:100F800060FD990F62FD9295687F269FD001112424
:100F9000A80FAF50BE4F8C9140FF03C0892B8C939C
:100FA000089590958923FBCFEF92FF920F931F93A3
:100FB000CF93DF937C018B01040F111DEB0177FFB1
:100FC00002C0D0E0C0E0C8010134110514F080E493
:100FD00090E0C817D9075CF480E8E816F10428F41B
:100FE00041E0BE01C7010E94BC072196ECCFDF9112
:100FF000CF911F910F91FF90EF900895EF92FF9284
:101000000F931F93CF93DF937C018B01C42FD22FBB
:101010006034710510F40E940504B8016D0F711D54
:10102000615071096034710520F44C2FC7010E9492
:1010300005044D2FB801C7010E94D407C7018C0FCA
:10104000911D4D2FB8010197DF91CF911F910F9105
:10105000FF90EF900C94D4072F923F924F925F92A3
:101060006F927F928F929F92AF92BF92CF92DF92B8
:10107000EF92FF920F931F93CF93DF93CDB7DEB71D
:1010800028970FB6F894DEBF0FBECDBF9E838D8329
:101090006A3061F5DC0155968C91B8E08B9F900128
:1010A0001124ED81FE8181899289820F931F928B99
:1010B000818B108A178681E090E028960FB6F8940D
:1010C000DEBF0FBECDBFDF91CF911F910F91FF907B
:1010D000EF90DF90CF90BF90AF909F908F907F90D8
:1010E0006F905F904F903F902F9008956D3019F35F
:1010F0002D813E8138872F83D9011F960D911C9138
:101100005097003811050CF07CC05196AD90BC9002
:10111000B0E4AB16B1040CF074C0F901258825E0E9
:10112000C801229E800D911D1124181619060CF07D
:1011300068C0622C712CC30133E0880F991F3A9567
:10114000E1F78A0D9B1D181619060CF05AC0F48998
:10115000FB83AF81B8855396BC91BC83629FB0017D
:101160001124FB01E455FF4F2F011982F2018491F4
:10117000F981F53009F480E0450128E02A83A82FA1
:10118000B0E0BE83AD833C8080FF3B80311004C063
:10119000BB81EC81BE17F9F078018E2D801B821582
:1011A000D0F4D12CC12CC21490F4F0E8EF16F10465
:1011B00050F4B601680D791D6034710520F4432D9B
:1011C000C7010E94BC072FEFC21AD20AECCF3FEF33
:1011D000E31AF30AE2CF8D819E81959587959A81D6
:1011E00091509A83860C971C9111C9CFA981AF5F4A
:1011F000A983BFEF4B1A5B0A060D171DA63009F035
:10120000B5CFEF81F8852589422F50E087859089F9
:10121000F6E02F9F800D911D1124AF81B885509667
:101220009C938E931F9756962C915697222309F4E0
:1012300042CF6AEF64039001659F300D112420585E
:101240003F4F281739070CF036CFED91FC911197DD
:101250000190F081E02D6AE0CD0109952CCF089531
:10126000089590E080E008958F929F92AF92BF9290
:10127000EF92FF920F931F93CF93DF93CDB7DEB71B
:10128000A1970FB6F894DEBF0FBECDBF7C01FA0167
:10129000CB0119A2223008F42AE08E010F5D1F4F06
:1012A000822E912CB12CA12CBF01A50194010E948A
:1012B0000D12F901CA016A3074F5605DD8016E93B0
:1012C0008D01232B242B252B79F790E080E01097BC
:1012D00089F0FD0101900020E9F73197AF014A1B29
:1012E0005B0BD701ED91FC910280F381E02DB801F9
:1012F000C7010995A1960FB6F894DEBF0FBECDBF0A
:10130000DF91CF911F910F91FF90EF90BF90AF9021
:101310009F908F900895695CD1CF0C94C5110E9465
:101320006C121F920F920FB60F9211248F939F93FE
:101330008091E1009091E100937F9093E10083FF21
:101340000FC01092E90091E09093EB001092EC0036
:1013500092E39093ED001092A00198E09093F0003A
:1013600082FF22C093E09093E9009091F2009923CC
:1013700019F09AE39093E80090919101992341F03C
:1013800090919101915090939101911101C05D9ABA
:1013900090919F01992341F090919F0191509093DA
:1013A0009F01911101C0289A84FF18C08091E2002A
:1013B0008E7E81608093E2008091E1008F7E809339
:1013C000E100809192018E7E8061809392019F91D5
:1013D0008F910F900FBE0F901F90189580FFF7CF41
:1013E0008091E2008E7E80618093E2008091E10036
:1013F0008E7E8093E100809192018E7E8160E5CFA8
:101400001F920F920FB60F921124CF92DF92EF929C
:10141000FF920F931F932F933F934F935F936F937D
:101420007F938F939F93AF93BF93EF93FF93CF934C
:10143000DF93CDB7DEB76C97DEBFCDBF1092E9006A
:101440008091E80083FF25C068E0CE0145960E94A8
:10145000A00582EF8093E8008D8987FF39C09091C5
:10146000E80090FFFCCF982F907609F034C19E8958
:101470004F89588D2F89F88C911131C0803861F5D2
:10148000809190018093F1001092F1008EEF809393
:10149000E8006C960FB6F894DEBF0FBECDBFDF91AB
:1014A000CF91FF91EF91BF91AF919F918F917F91DC
:1014B0006F915F914F913F912F911F910F91FF90ED
:1014C000EF90DF90CF900F900FBE0F901F90189568
:1014D0009EEF9093E800C7CF1092F100D5CF9130E6
:1014E00059F48111D3CF4130510581F6809190019B
:1014F0008D7F80939001CACF933049F48111C6CF7C
:101500004130510519F6809190018260F2CF9530FB
:1015100041F48091E80080FFFCCF20682093E30035
:10152000B5CF963009F0A9C00B8D1C8D22E010922A
:10153000E90010928E0110928D01F2122EC01092CD
:101540008C0110928B010E946F051F8299E0998394
:10155000FA8291E09E8390EA98879AEF998720918A
:101560008D0130918E01275F3F4F3C832B838D830C
:101570001092E90010928E0110928D0110938C014F
:1015800000938B0149E050E0BE016F5F7F4F80E028
:101590000E9449050E946F0579CF10938C0100933A
:1015A0008B010E948604DC0112960D911C9101159D
:1015B000110509F451C1D801ED91FC910480F58128
:1015C000E02DBE016B5E7F4FC8010995009709F0C1
:1015D0003EC1F80100851185EACFF3E0FF120EC08D
:1015E0008F89882309F440C0823061F440E860E1CB
:1015F0008DE897E00E947C0C811148CF81E28093B6
:10160000EB0047CF813029F440E86BE081E897E0B8
:10161000F1CF833099F70E948604DC011296ED9099
:10162000FC908E010F5F1F4F6801E114F10479F007
:10163000D701ED91FC910680F781E02DB801C7013B
:101640000995080F111DF701E084F184EECFD80150
:101650001C92F60101900020E9F73197BF016C1947
:101660007D0940E0C601C6CF6BE677E0FB014491FF
:1016700050E080E80E94490509CF973009F4BECFB9
:10168000983021F481E08093F10000CF993009F087
:10169000FDCE837009F0B2CFE1E1F1E081E031E00D
:1016A00096E32191222371F08093E9003093EB00BF
:1016B000DF0111972C912093EC009093ED008F5F48
:1016C000873079F78EE78093EA001092EA008F89DD
:1016D0008093A001DBCE8B8D9C8D1092E90010923F
:1016E0008E0110928D0190938C0180938B01898DD6
:1016F000811192C08E899D89913A49F4813209F015
:101700007DCF47E050E064E071E080E0B3CF9132FC
:1017100009F074CF833269F48F89988DB0E0A0E02E
:101720008093000190930101A0930201B093030103
:10173000ADCE803269F48091E80082FFFCCF67E093
:1017400084E091E00E94A0058BEF8093E8009ECE9C
:10175000823209F09BCE8F8980930B01EEEFFFE779
:10176000859194918B3F9C4D51F1E0E0F8E08091A0
:10177000040190910501A0910601B0910701803B01
:101780009440A105B105F1F480910B0180FD1AC0D0
:10179000EE3F8AE0F80789F587E797E79183808332
:1017A0008091600080938F0188E19BE00FB6F894F0
:1017B000A895809360000FBE9093600067CEEEEF17
:1017C000FAE0D5CF808191818737974709F05ECEC7
:1017D000A8958091600088618093600080918F015E
:1017E00080936000EE3F2AE0F20789F08091FE0AC4
:1017F0009091FF0A9183808349CE808191818737C0
:10180000980751F29093FF0A8093FE0AC5CF109279
:10181000FF0A1092FE0A3ACE0E948604DC0112965C
:101820000D911C910115110509F4E8CED801ED9137
:10183000FC910190F081E02DBE016B5E7F4FC801ED
:101840000995811123CEF80100851185EBCF18167B
:1018500019060CF41BCED2CEF1E0FF12BECE6FE61D
:1018600077E004CF1F920F920FB60F9211242F939F
:101870003F938F939F93AF93BF9380915F0190911C
:101880006001A0916101B091620130915A0123E0A1
:10189000230F2D3758F50196A11DB11D20935A0134
:1018A00080935F0190936001A0936101B093620106
:1018B00080915B0190915C01A0915D01B0915E010E
:1018C0000196A11DB11D80935B0190935C01A093D3
:1018D0005D01B0935E01BF91AF919F918F913F9158
:1018E0002F910F900FBE0F901F90189526E8230F91
:1018F0000296A11DB11DD2CFEF92FF920F931F93BD
:10190000CF93DF93F82E192FE62E042F81E0860F58
:10191000880F0E941B0583E00E941B05CF2DD12F4D
:10192000EC0EFD2EF11CCE15DF05B9F007FF13C03C
:10193000FE0184910E941B05182F80E00E941B0568
:10194000812321968111EFCFDF91CF911F910F91CC
:10195000FF90EF9008958881EDCF81E0F5CF0F9350
:101960001F93CF93DF938C0181E090E00E948D095B
:1019700080FF32C08AE090E00E948D099FEF980FAF
:101980009E3F50F522E330E0D80150963C932E93D1
:101990001F9728E330E052963C932E935197CBE06B
:1019A000D0E0D801ED91FC910190F081E02D682FFD
:1019B000C8010995CE010E948D092196C131D1053A
:1019C00081F780E00E943C0488EE93E0DF91CF91A4
:1019D0001F910F910C94AF07DF91CF911F910F9141
:1019E000089504970C94AF0CE1EAF1E0138212829F
:1019F00088EE93E0A0E0B0E084839583A683B7836C
:101A00008BE191E0918380838FEF9FEF95878487AF
:101A1000E5E0F6E0138212821186128680E1838768
:101A200010861782158689E391E09183808387E48D
:101A300091E095838483108A1786128A118A81E047
:101A4000838B148A858B168AE1EFF5E0138212826C
:101A50002DE231E03183208321EF31E0358324838F
:101A600020E830E03783268320E430E03187208788
:101A700095E0938B828B15861486178616861386BF
:101A8000128681E090E0918B808B0895CF93DF9355
:101A900000D000D0CDB7DEB7789484B5826084BD25
:101AA00084B5816084BD85B5826085BD85B5816062
:101AB00085BD80916E00816080936E0010928100E0
:101AC000809181008260809381008091810081609B
:101AD000809381008091800081608093800080915C
:101AE0009100826080939100809191008160809349
:101AF0009100809190008160809390008091C1005E
:101B000084608093C1008091C10082608093C10095
:101B10008091C10081608093C1008091C300816089
:101B20008093C3008091C00082608093C000809148
:101B3000C20081608093C20080917A0084608093AB
:101B40007A0080917A00826080937A0080917A0096
:101B5000816080937A0080917A00806880937A0017
:101B60001092A00110929001109292018091D700E2
:101B700081608093D70080EA8093D80089B5806126
:101B800089BD89B5826089BD09B400FEFDCF61E0E1
:101B900070E080E090E00E94FF058091D8008F7C8B
:101BA00080618093D8008091E000807F8093E00086
:101BB0008091E1008E7E8093E1008DE08093E200D1
:101BC000559A209A81EC80937C0085B1806F85B90D
:101BD00084B1877E84B984B1876E84B95E9A5F9838
:101BE0008AB1806D8AB9769A6E9881B3806F81BB15
:101BF000899880B38D7080BB80E58CBD81E08DBD00
:101C000085E090E00E94AF075F9A85E090E00E9437
:101C1000AF075E985C98ECE1F7E084918EBD000020
:101C20000DB407FEFDCF319627E0E932F207A9F7A0
:101C30005C9A81E880936400809165008160809364
:101C4000650080E00E943C040E94B40787FF15C035
:101C50005C9885EA8EBD00000DB407FEFDCF5C9A4E
:101C60002E982F982D988091640080628093640054
:101C700081E083BF889513BEFCCF0E94B40782FF2A
:101C800048C02D980E94B40784788438E1F40E94FB
:101C9000AD0788EC90E00E94AF072F9882E090E0BB
:101CA0000E94C5118F3F29F06FEF82E090E00E9403
:101CB000CD1184EF91E00E94AF072F9A0E94B407E4
:101CC00084788438D9F30E94B40784718431E1F4B4
:101CD0000E94AD0788EC90E00E94AF072E9882E04A
:101CE00090E00E94C511882329F060E082E090E036
:101CF0000E94CD1184EF91E00E94AF072E9A0E94BE
:101D0000B40784718431D9F388EC90E00E94AF0766
:101D1000B4CF0E94AD0782E090E00E948D09882335
:101D200009F454C03E9A3F9A81E090E00E948D09E8
:101D3000382F3470732E81FF13C031112E9870EF3D
:101D4000272E33243A9408E010E0ECE6EE2EF12C36
:101D50000E94B40786FF3DC02E9A2F9A0E94AD07BD
:101D600082E390E00E94AF070E94B4078111F8CF90
:101D700081E28093100610928A0136E0432E512CA6
:101D8000612C712C48E0842E912C222423942FB7AF
:101D9000F89480915F0190916001A0916101B091F0
:101DA00062012FBF20911106382F321B209112069D
:101DB000222309F4B0C0309313061092120680E07B
:101DC00090E0892B21F30E940000DFCF3E983F98DE
:101DD000ABCF772031F044E02416310411F42E9A71
:101DE0002F9881E00E943C04910137FE04C0222715
:101DF00033272219330927703327C10137FC07968F
:101E000063E0959587956A95E1F737FE05C00197E0
:101E1000F801E21BF30B9F01BC017695762F662734
:101E2000779567956F507E4FB0E0A0E02801421A89
:101E3000530A8F3FFFEF9F070CF446C048E550E080
:101E4000FD01EC53F94F5F014B01F0E88F0E911C3F
:101E50008F3F9807C9F0F501E41BF50B649067010B
:101E6000C41AD50AC60ED71EE62DF0E0022E02C017
:101E7000EE0FFF1F0A94E2F7FC83EB83F60160800C
:101E8000FB816F2AF601608221153105C9F0F50149
:101E9000E41BF50B64906701C41AD50AC80CD91C61
:101EA000E62DF0E0042C02C0F595E7950A94E2F7E0
:101EB000FC83EB83F6016080FB816F2AF601608270
:101EC0004150510909F0C4CF0196A85ABF4F60583C
:101ED0007F4FA03BB10509F0ACCF80E00E943C04ED
:101EE0008FE090E00E94AF07FFEF2F1A3F0A29E131
:101EF0002216310409F02CCF772011F02F9A2D985B
:101F000080E991E00E94AF070E94AD0785E096E06E
:101F10000E94AF0C25CF40911006341740F43F5F6C
:101F2000341708F04CCF23BE889513BE48CF2092BB
:101F300012068093110680910C0690910D06019671
:101F400090930D0680930C06E1EFF1E021112FEF45
:101F5000002421932193219321930394D1F710928C
:101F6000170610921606109215061092140680910C
:101F70000E0680930F060E94B40780930E06109100
:101F80008A011111B6C090921506809214069092A3
:101F900017068092160640E150E069E471E085E0A2
:101FA00096E00E94AD0588E00E94FA03882309F4B8
:101FB00066C020928A0110928901109288011092C5
:101FC000630124E6E22E21E0F22E06E01A82198255
:101FD0000E946D11C980DA80CE0CDF1C2AE030E04F
:101FE00040E050E00E94DB11F601608329813A81D4
:101FF0002F5F3F4F3A8329832630310549F701503F
:1020000036E0E30EF11C0111E1CF0E946D11A30136
:1020100092010E94DB11E62E062F0E946D11A30192
:1020200092010E94DB116983362E0E946D11F12C02
:102030005981452F50E05C834B83E6E0EE9D900193
:10204000EF9D300D1124A9014C595E4F5A01CB80F0
:10205000DC80C40ED51EF601F081F98324E030E067
:1020600040E050E00E94DB11613041F160F06230ED
:1020700071F16330C1F1F9811F0F1093630180E0AA
:102080000E943C049CCEE11007C02B813C812C595E
:102090003E4FF9011681EFCFF1E0EF1AF10826E08B
:1020A0002E9DC0012F9D900D11248C599E4F4B8168
:1020B0005C81480F591FFA011081DDCFF5E03F1216
:1020C00003C0F5011481D7CFF6011181D4CFFFEF02
:1020D000EF1AFF0A053019F72B813C812C593E4F2E
:1020E000F901108DC8CFF60131973110E5CFF50118
:1020F000ECCF113021F694E6C92E91E0D92E28E0DC
:1021000030E03C832B83312C4B815C814150510961
:102110005A834983AB80BC8052E0A50EB11C85E098
:10212000E82EF12C10E000E09091890193110DC090
:1021300090918801901309C02AE04AE0B7016150EC
:10214000710989819A810E94FE0728E048E0B70161
:102150008B819C810E94FE07B092FE05A092FD0536
:10216000B092FC05A092FB05C70102969093000671
:102170008093FF05F601E00FF11F408150E070E011
:1021800060E02AE081EF95E00E9434090F5F1F4F65
:1021900089E0E80EF11C0630110531F63394EB812D
:1021A000FC813996FC83EB83F6E0CF0ED11C26E050
:1021B0003212AACF44E450E050931506409314061F
:1021C00090921706809216064091630150E070E0ED
:1021D00060E02AE085E096E00E94340980E80E94F1
:1021E000FA03882339F080918801882319F08150FF
:1021F0008093880180E10E94FA03882339F080915E
:102200008801853018F48F5F8093880180E20E94F6
:10221000FA03882339F080918901882319F08150CD
:102220008093890180E40E94FA03882309F427CF70
:1022300080918901853008F022CF8F5F80938901DA
:102240001ECF8F929F92AF92BF92CF92DF92EF926A
:10225000FF92CF93DF93EC01688179818A819B8122
:10226000611571058105910521F464E279ED8BE535
:1022700097E02DE133EF41E050E00E94DB1149018E
:102280005A019B01AC01A7EAB1E40E94FA116B016B
:102290007C01ACEEB4EFA50194010E940812C60EB9
:1022A000D71EE81EF91EF7FE06C081E0C81AD10845
:1022B000E10880E8F80AC882D982EA82FB82C70175
:1022C000B6019F77DF91CF91FF90EF90DF90CF9095
:1022D000BF90AF909F908F9008958F929F92AF92F2
:1022E000BF92CF92DF92EF92FF9260910C017091BA
:1022F0000D0180910E0190910F016115710581050D
:10230000910521F464E279ED8BE597E02DE133EF5F
:1023100041E050E00E94DB1149015A019B01AC01F0
:10232000A7EAB1E40E94FA116B017C01ACEEB4EFB4
:10233000A50194010E940812C60ED71EE81EF91EC0
:10234000F7FE06C081E0C81AD108E10880E8F80A63
:10235000C0920C01D0920D01E0920E01F0920F019B
:10236000C701B6019F77FF90EF90DF90CF90BF90AD
:10237000AF909F908F90089560930C0170930D0122
:1023800080930E0190930F010895F999FECF92BDAD
:1023900081BDF89A992780B50895262FF999FECF27
:1023A0001FBA92BD81BD20BD0FB6F894FA9AF99A72
:1023B0000FBE01960895052E97FB1EF400940E940F
:1023C000F21157FD07D00E940D1207FC03D04EF406
:1023D0000C94F21150954095309521953F4F4F4FF9
:1023E0005F4F089590958095709561957F4F8F4FC1
:1023F0009F4F08950E942F12A59F900DB49F900D9E
:10240000A49F800D911D11240895B7FF0C94FA111B
:102410000E94FA11821B930B0895A1E21A2EAA1BA7
:10242000BB1BFD010DC0AA1FBB1FEE1FFF1FA21784
:10243000B307E407F50720F0A21BB30BE40BF50B81
:10244000661F771F881F991F1A9469F7609570950A
:10245000809590959B01AC01BD01CF010895A29F8D
:10246000B001B39FC001A39F700D811D1124911D68
:10247000B29F700D811D1124911D089597FB072EA9
:1024800016F4009407D077FD09D00E94521207FC81
:1024900005D03EF4909581959F4F08957095619574
:1024A0007F4F0895AA1BBB1B51E107C0AA1FBB1F8A
:1024B000A617B70710F0A61BB70B881F991F5A95D0
:1024C000A9F780959095BC01CD010895EE0FFF1FEF
:1024D0000590F491E02D099481E090E0F8940C943B
:0624E0007112F894FFCF19
:1024E600FFFFFFFF00E10000000000000100000008
:1024F60000C18081000000000000009A043206BB83
:1025060004B0040105BF04DD04000000002407AD8B
:102516000531093009000000002C08AD05310930ED
:1025260009AF0CFCFF0000F10C507265737320417B
:0A25360020746F207374617274004A
:00000001FF
